{
  "_format": "hh-sol-artifact-1",
  "contractName": "Greeter",
  "sourceName": "contracts/Greeter.sol",
  "abi": [
    {
      "inputs": [
        {
          "internalType": "string",
          "name": "_greeting",
          "type": "string"
        }
      ],
      "stateMutability": "nonpayable",
      "type": "constructor"
    },
    {
      "anonymous": false,
      "inputs": [
        {
          "indexed": true,
          "internalType": "address",
          "name": "by",
          "type": "address"
        },
        {
          "indexed": false,
          "internalType": "string",
          "name": "oldGreeting",
          "type": "string"
        },
        {
          "indexed": false,
          "internalType": "string",
          "name": "newGreeting",
          "type": "string"
        }
      ],
      "name": "GreetingChanged",
      "type": "event"
    },
    {
      "inputs": [],
      "name": "greet",
      "outputs": [
        {
          "internalType": "string",
          "name": "",
          "type": "string"
        }
      ],
      "stateMutability": "view",
      "type": "function"
    },
    {
      "inputs": [],
      "name": "greeting",
      "outputs": [
        {
          "internalType": "string",
          "name": "",
          "type": "string"
        }
      ],
      "stateMutability": "view",
      "type": "function"
    },
    {
      "inputs": [
        {
          "internalType": "string",
          "name": "_newGreeting",
          "type": "string"
        }
      ],
      "name": "setGreeting",
      "outputs": [],
      "stateMutability": "nonpayable",
      "type": "function"
    }
  ],
  "bytecode": "0x60806040523480156200001157600080fd5b5060405162000d6438038062000d648339818101604052810190620000379190620001e3565b80600090816200004891906200047f565b505062000566565b6000604051905090565b600080fd5b600080fd5b600080fd5b600080fd5b6000601f19601f8301169050919050565b7f4e487b7100000000000000000000000000000000000000000000000000000000600052604160045260246000fd5b620000b9826200006e565b810181811067ffffffffffffffff82111715620000db57620000da6200007f565b5b80604052505050565b6000620000f062000050565b9050620000fe8282620000ae565b919050565b600067ffffffffffffffff8211156200012157620001206200007f565b5b6200012c826200006e565b9050602081019050919050565b60005b83811015620001595780820151818401526020810190506200013c565b60008484015250505050565b60006200017c620001768462000103565b620000e4565b9050828152602081018484840111156200019b576200019a62000069565b5b620001a884828562000139565b509392505050565b600082601f830112620001c857620001c762000064565b5b8151620001da84826020860162000165565b91505092915050565b600060208284031215620001fc57620001fb6200005a565b5b600082015167ffffffffffffffff8111156200021d576200021c6200005f565b5b6200022b84828501620001b0565b91505092915050565b600081519050919050565b7f4e487b7100000000000000000000000000000000000000000000000000000000600052602260045260246000fd5b600060028204905060018216806200028757607f821691505b6020821081036200029d576200029c6200023f565b5b50919050565b60008190508160005260206000209050919050565b60006020601f8301049050919050565b600082821b905092915050565b600060088302620003077fffffffffffffffffffffffffffffffffffffffffffffffffffffffffffffffff82620002c8565b620003138683620002c8565b95508019841693508086168417925050509392505050565b6000819050919050565b6000819050919050565b6000620003606200035a62000354846200032b565b62000335565b6200032b565b9050919050565b6000819050919050565b6200037c836200033f565b620003946200038b8262000367565b848454620002d5565b825550505050565b600090565b620003ab6200039c565b620003b881848462000371565b505050565b5b81811015620003e057620003d4600082620003a1565b600181019050620003be565b5050565b601f8211156200042f57620003f981620002a3565b6200040484620002b8565b8101602085101562000414578190505b6200042c6200042385620002b8565b830182620003bd565b50505b505050565b600082821c905092915050565b6000620004546000198460080262000434565b1980831691505092915050565b60006200046f838362000441565b9150826002028217905092915050565b6200048a8262000234565b67ffffffffffffffff811115620004a657620004a56200007f565b5b620004b282546200026e565b620004bf828285620003e4565b600060209050601f831160018114620004f75760008415620004e2578287015190505b620004ee858262000461565b8655506200055e565b601f1984166200050786620002a3565b60005b8281101562000531578489015182556001820191506020850194506020810190506200050a565b868310156200055157848901516200054d601f89168262000441565b8355505b6001600288020188555050505b505050505050565b6107ee80620005766000396000f3fe608060405234801561001057600080fd5b50600436106100415760003560e01c8063a413686214610046578063cfae321714610062578063ef690cc014610080575b600080fd5b610060600480360381019061005b9190610324565b61009e565b005b61006a610195565b6040516100779190610401565b60405180910390f35b610088610227565b6040516100959190610401565b60405180910390f35b60008080546100ac90610452565b80601f01602080910402602001604051908101604052809291908181526020018280546100d890610452565b80156101255780601f106100fa57610100808354040283529160200191610125565b820191906000526020600020905b81548152906001019060200180831161010857829003601f168201915b5050505050905082826000918261013d929190610673565b503373ffffffffffffffffffffffffffffffffffffffff167fed60269ecf9bdf3a79938ca35e7332c6dda67ee9ba2dc50ad7c931c2c6e9a3d58285856040516101889392919061077f565b60405180910390a2505050565b6060600080546101a490610452565b80601f01602080910402602001604051908101604052809291908181526020018280546101d090610452565b801561021d5780601f106101f25761010080835404028352916020019161021d565b820191906000526020600020905b81548152906001019060200180831161020057829003601f168201915b5050505050905090565b6000805461023490610452565b80601f016020809104026020016040519081016040528092919081815260200182805461026090610452565b80156102ad5780601f10610282576101008083540402835291602001916102ad565b820191906000526020600020905b81548152906001019060200180831161029057829003601f168201915b505050505081565b600080fd5b600080fd5b600080fd5b600080fd5b600080fd5b60008083601f8401126102e4576102e36102bf565b5b8235905067ffffffffffffffff811115610301576103006102c4565b5b60208301915083600182028301111561031d5761031c6102c9565b5b9250929050565b6000806020838503121561033b5761033a6102b5565b5b600083013567ffffffffffffffff811115610359576103586102ba565b5b610365858286016102ce565b92509250509250929050565b600081519050919050565b600082825260208201905092915050565b60005b838110156103ab578082015181840152602081019050610390565b60008484015250505050565b6000601f19601f8301169050919050565b60006103d382610371565b6103dd818561037c565b93506103ed81856020860161038d565b6103f6816103b7565b840191505092915050565b6000602082019050818103600083015261041b81846103c8565b905092915050565b7f4e487b7100000000000000000000000000000000000000000000000000000000600052602260045260246000fd5b6000600282049050600182168061046a57607f821691505b60208210810361047d5761047c610423565b5b50919050565b600082905092915050565b7f4e487b7100000000000000000000000000000000000000000000000000000000600052604160045260246000fd5b60008190508160005260206000209050919050565b60006020601f8301049050919050565b600082821b905092915050565b60006008830261051f7fffffffffffffffffffffffffffffffffffffffffffffffffffffffffffffffff826104e2565b61052986836104e2565b95508019841693508086168417925050509392505050565b6000819050919050565b6000819050919050565b600061057061056b61056684610541565b61054b565b610541565b9050919050565b6000819050919050565b61058a83610555565b61059e61059682610577565b8484546104ef565b825550505050565b600090565b6105b36105a6565b6105be818484610581565b505050565b5b818110156105e2576105d76000826105ab565b6001810190506105c4565b5050565b601f821115610627576105f8816104bd565b610601846104d2565b81016020851015610610578190505b61062461061c856104d2565b8301826105c3565b50505b505050565b600082821c905092915050565b600061064a6000198460080261062c565b1980831691505092915050565b60006106638383610639565b9150826002028217905092915050565b61067d8383610483565b67ffffffffffffffff8111156106965761069561048e565b5b6106a08254610452565b6106ab8282856105e6565b6000601f8311600181146106da57600084156106c8578287013590505b6106d28582610657565b86555061073a565b601f1984166106e8866104bd565b60005b82811015610710578489013582556001820191506020850194506020810190506106eb565b8683101561072d5784890135610729601f891682610639565b8355505b6001600288020188555050505b50505050505050565b82818337600083830152505050565b600061075e838561037c565b935061076b838584610743565b610774836103b7565b840190509392505050565b6000604082019050818103600083015261079981866103c8565b905081810360208301526107ae818486610752565b905094935050505056fea2646970667358221220d44973e826b90c6beda6c6a53801014d5b9fe6ff748a4a12c1d815ea5faeb2ea64736f6c63430008140033",
  "linkReferences": {},
  "deployedLinkReferences": {}
}